:100000000C9444010C9475010C9475010C947501C9
:100010000C9475010C9475010C9475010C94750188
:100020000C9475010C9475010C9475010C94750178
:100030000C9475010C9475010C9475010C94750168
:100040000C9475010C94CC0F0C9475010C947501F3
:100050000C9475010C9475010C9475010C94820F2D
:100060000C9475010C944C0F0C94220F0C94750198
:100070000C9475010C9475010C9475010C94750128
:100080000C9475010C9475010C9475010C94750118
:100090000C9475010C9475010C9475010C94750108
:1000A0000C9475010C9475010C9475010C947501F8
:1000B0000C9475010C9475010C9475010C947501E8
:1000C0000C9475010C9475010C9475010C947501D8
:1000D0000C9475010C9475010C9475010C947501C8
:1000E0000C9475010C9481030C9466030C944907DD
:1000F0000C94F2050C9462030C94EF0F0C947103B2
:100100000C94F1050C946A030C9489030C94460238
:100110000C943F040C9493030C949C030C9468027D
:100120000C947B030C945A020C948F030C94770369
:100130000C9497030C9485030C94A2110C94370231
:100140000C94A0020C94ED020C946E030C94CE035C
:100150000C94FF030C940A020C94A1030C949D03CD
:100160000C945C0300002100240027002A002D00CD
:100170003000330001010000040107010A01000002
:100180002200250028002B002E003100340002013F
:100190000000050108010B010000200023002600DB
:1001A00029002C002F00320000010000030106018D
:1001B00009010505050507050808080802020202ED
:1001C0000A0A0808040404040101010101010101F3
:1001D0000303030303030303040707070C0C0C0CBE
:1001E0000C0C0C0C020202020606060606060606A7
:1001F0000B0B0B0B0B0B0B0B010210202008081034
:100200002040102040800201020108040201010286
:10021000040810204080804020100804020180045F
:1002200002018040201008040201080402010102BA
:1002300004081020408001020408102040800000C3
:100240000A0B02090C0D0E08070304010000000050
:10025000000000000000000000000000000000009E
:10026000000000000000000000001211100000005B
:10027000000000000000000000000000000000007E
:1002800000000000EF0FA21111241FBECFEFD1E23A
:10029000DEBFCDBF00E00CBF25E0ACEDB3E001C098
:1002A0001D92A133B207E1F713E0A0E0B2E0ECE663
:1002B000F8E200E00BBF02C007900D92AC3DB10721
:1002C000D9F711E0C3E4D1E000E006C021970109AD
:1002D000802FFE010E94FD11C234D10780E0080783
:1002E000A9F70E94C1100C9424140C94000096E00D
:1002F000899FD0011124A257BB4F90967C936E9397
:100300005F9791E091969C939197E091FB04F09117
:10031000FC049091FA04992339F0309751F081113F
:1003200008C08091AA041994309719F05C968C91BA
:10033000FACF0895CF92DF92EF92FF920F931F931F
:1003400096E0899FF0011124E257FB4F11A2278DFF
:1003500030A12130310551F178F02230310509F416
:1003600051C02330310509F452C01F910F91FF9005
:10037000EF90DF90CF9008956623B9F361E070E0CD
:100380000E9477012FB7F8948091ED039091EE03CE
:10039000A091EF03B091F0032FBF8093E6049093F8
:1003A000E704A093E804B093E904DFCF9FB7F89483
:1003B000C090ED03D090EE03E090EF03F090F003D7
:1003C0009FBF0091E6041091E7042091E80430916A
:1003D000E904C01AD10AE20AF30A0091F804109164
:1003E000F90430E020E00C151D052E053F0550F402
:1003F00062E070E01F910F91FF90EF90DF90CF903F
:100400000C9477016111B1CF63E070E0F3CF70E03D
:1004100060E0F0CFAF92BF92CF92DF92EF92FF9267
:100420000F931F93CF93DF936C017B018B01040F1C
:10043000151FEB015E01AE18BF08C017D10759F0B8
:100440006991D601ED91FC910190F081E02DC601FA
:100450001995892B79F7C501DF91CF911F910F91E4
:10046000FF90EF90DF90CF90BF90AF900895FC0188
:10047000538D448D252F30E0842F90E0821B930B09
:10048000541710F0CF96089501970895FC01918DAF
:10049000828D981761F0A28DAE0FBF2FB11D5D96B2
:1004A0008C91928D9F5F9F73928F90E008958FEF54
:1004B0009FEF0895FC01918D828D981731F0828D08
:1004C000E80FF11D858D90E008958FEF9FEF08955F
:1004D000FC01918D228D892F90E0805C9F4F821BC3
:1004E00091098F739927089581EF93E00E94680224
:1004F00021E0892B09F420E0822F0895FC01A48DCE
:10050000A80FB92FB11DA35ABF4F2C91848D90E035
:1005100001968F739927848FA689B7892C93A08918
:10052000B1898C91837080648C93938D848D9813A2
:1005300006C00288F389E02D80818F7D8083089535
:10054000EF92FF920F931F93CF93DF93EC0181E023
:10055000888F9B8D8C8D98131AC0E889F9898081CA
:1005600085FF15C09FB7F894EE89FF896083E889FD
:10057000F98980818370806480839FBF81E090E0EF
:10058000DF91CF911F910F91FF90EF900895F62E7C
:100590000B8D10E00F5F1F4F0F731127E02E8C8D16
:1005A0008E110CC00FB607FCFACFE889F98980815B
:1005B00085FFF5CFCE010E947E02F1CFEB8DEC0FCF
:1005C000FD2FF11DE35AFF4FF0829FB7F8940B8F78
:1005D000EA89FB8980818062CFCFCF93DF93EC01E2
:1005E000888D8823B9F0AA89BB89E889F9898C911B
:1005F00085FD03C0808186FD0DC00FB607FCF7CFD7
:100600008C9185FFF2CF808185FFEDCFCE010E94D6
:100610007E02E9CFDF91CF91089580E090E0892BB1
:1006200029F00E94740281110E94000080E090E095
:10063000892B49F080E090E0892B29F00E9400008E
:1006400081110E94000080E090E0892B49F080E059
:1006500090E0892B29F00E94000081110E94000087
:1006600080E090E0892B49F080E090E0892B29F030
:100670000E94000081110C94000008958150823185
:1006800008F05AC0E82FF0E08827E65BFC4F8F4F58
:100690000C94FD116A036E035C03620366039C0302
:1006A000710377037B038103850389038F0393031E
:1006B0009C0397039D03A103809180008F77809313
:1006C00080000895809180008F7DF9CF8091800017
:1006D000877FF5CF84B58F7784BD089584B58F7DEE
:1006E000FBCF8091B0008F778093B0000895809108
:1006F000B0008F7DF9CF809190008F77809390002C
:100700000895809190008F7DF9CF80919000877F30
:10071000F5CF8091A0008F778093A00008958091FD
:10072000A0008F7DF9CF8091A000877FF5CF8091C9
:1007300020018F77809320010895809120018F7D83
:10074000F9CF80912001877FF5CFCF93DF93282FBA
:1007500030E0F901E25CFD4F8491F901E850FE4F71
:10076000D491F901EE54FE4FC491CC23A1F0811134
:100770000E943E03EC2FF0E0EE0FFF1FE856FE4F05
:10078000A591B491EC91ED2381E090E009F480E033
:10079000DF91CF91089580E090E0FACF862F0C94FE
:1007A000A5031F93CF93DF93282F30E0F901E25C7C
:1007B000FD4F8491F901E850FE4FD491F901EE54B8
:1007C000FE4FC491CC23A9F0162F81110E943E0345
:1007D000EC2FF0E0EE0FFF1FE258FE4FA591B49111
:1007E0008FB7F894EC91111108C0D095DE23DC93FB
:1007F0008FBFDF91CF911F910895DE2BF8CF862F09
:10080000642F0C94D103CF93DF9390E0FC01E85068
:10081000FE4F24918E549E4FFC0184918823C9F091
:1008200090E0880F991FFC01EC59FE4FA591B491FF
:10083000FC01E258FE4FC591D49161110DC09FB7E4
:10084000F8948C91209582238C9388812823288387
:100850009FBFDF91CF910895623051F49FB7F89414
:100860003C91822F809583238C93E8812E2BEFCFB0
:100870008FB7F894EC912E2B2C938FBFEACF862F55
:10088000642F0C9403046F927F928F929F92AF9289
:10089000BF92CF92DF92EF92FF920F931F93CF936D
:1008A000DF9381E08093FA048FB7F8944091ED03D1
:1008B0005091EE036091EF037091F0038FBF809130
:1008C000EA049091EB04A091EC04B091ED04481B74
:1008D000590B6A0B7B0B8091F6049091F704B0E002
:1008E000A0E084179507A607B70708F01DC1C0E070
:1008F0008091F404C81760F4E091F004F091F104E1
:10090000EC0FF11D62E080810E940304CF5FF0CF05
:10091000712C812C912C540183948091F5047816CC
:1009200008F05FC0072D10E0E091F204F091F304AD
:10093000E00FF11F61E080810E940304E091F20466
:10094000F091F304E00FF11F60E080810E94D10379
:10095000D501C401072C04C0880F991FAA1FBB1F13
:100960000A94D2F76C017C01E094F094612C8091A0
:10097000F4046816F8F4C62DD0E0E091F004F0918C
:10098000F104EC0FFD1F80810E94A5032496CC0F7B
:10099000DD1FC257DB4F892B41F4888199818C2957
:1009A0009D29998388836394E2CF888199818E21E0
:1009B0009F21F7CFE091F204F091F304E00FF11FD3
:1009C00061E080810E94D1038091F2049091F30450
:1009D000080F191F60E0F80180810E9403047394DE
:1009E0009CCFCEE8D4E0FE018FEF9FEF278D30A1A2
:1009F000232B21F4148E968F858F11A2369624E036
:100A0000EA3CF20799F7F12C96E0D92E8091F40494
:100A1000F81608F050C0E12C0F2D10E0000F111F48
:100A20000A561B4F2091F504E21608F042C0F80167
:100A3000608171810E2C02C0769567950A94E2F769
:100A4000F29E900111242E0D311DEEE8F4E080E0BD
:100A5000458D568D2417350709F46AC08F5F369689
:100A60008A30B1F760FF23C0EEE8F4E090E080E068
:100A7000448D411117C0E091EE04F091EF04E20FB4
:100A8000F31F4081D89EF001D99EF00D1124E2574A
:100A9000FB4F448F368F258F10A2178E61E00E9486
:100AA0009A0105C0019636968A30910509F7E394BC
:100AB000B9CFF394ABCF80E099A19111892F2696FD
:100AC000F4E0CA3CDF07C1F79FB7F8944091ED030B
:100AD0005091EE036091EF037091F0039FBF40933C
:100AE000EA045093EB046093EC047093ED048823C4
:100AF000D9F08091AF048823B9F08091AD04909132
:100B0000AE04019789F48091AA04DF91CF911F91DF
:100B10000F91FF90EF90DF90CF90BF90AF909F909C
:100B20008F907F906F9008951092FA0480E0EDCF3F
:100B30006170B5CF3FB7F8948091E9039091EA03D3
:100B4000A091EB03B091EC0326B5A89B05C02F3F05
:100B500019F00196A11DB11D3FBFBA2FA92F982FE3
:100B60008827BC01CD01620F711D811D911D42E0DE
:100B7000660F771F881F991F4A95D1F708958F92A6
:100B80009F92AF92BF92CF92DF92EF92FF924B0172
:100B90005C010E949A056B017C010E949A056C1908
:100BA0007D098E099F09683E734081059105A8F370
:100BB00021E0821A9108A108B10888EEC80E83E0EE
:100BC000D81EE11CF11C81149104A104B10429F781
:100BD000FF90EF90DF90CF90BF90AF909F908F905D
:100BE0000895089590E080E00895CF93DF93EC019D
:100BF00060E08E810E94D10361E08E810E94D1036A
:100C000060E08E810E94D1038BE891E00197F1F7BB
:100C1000DF91CF910895CF92DF92EF92FF920F93E1
:100C20001F93CF93DF936C017C0187E0E80EF11CEA
:100C3000D0E0C0E0062F10E0B8010C2E02C0759580
:100C400067950A94E2F76170F70181917F010E9434
:100C5000D1032196C430D10579F7C601DF91CF9138
:100C60001F910F91FF90EF90DF90CF900C94F505BE
:100C7000CF92DF92EF92FF920F931F93CF93DF9368
:100C8000EC01F62E642F8C810E94D1038D818F3F61
:100C900019F060E00E94D1030F2D10E08F8584FFD2
:100CA00025C06E0187E0C80ED11CF12CE12CB801E3
:100CB0000E2C02C0759567950A94E2F76170F601F3
:100CC00081916F010E94D103FFEFEF1AFF0A88E0C4
:100CD000E816F10461F7CE01DF91CF911F910F91DA
:100CE000FF90EF90DF90CF900C94F505B80184E071
:100CF000759567958A95E1F7CE010E940B066F2DD9
:100D0000CE01DF91CF911F910F91FF90EF90DF9077
:100D1000CF900C940B0640E0682F85E195E00C9491
:100D2000380681E00E948B068BE39FE10197F1F783
:100D30000895CF93DF93823029F490912405986031
:100D400090932405809328051092290580E48093D0
:100D50002A0580E180932B0580E580932C0561E0D6
:100D6000809119050E94030480911A058F3F19F0A4
:100D700061E00E94030461E080911B050E9403046E
:100D8000C5E1D5E09E01255135408091240584FDC3
:100D90000BC084E090E021962817390744F461E005
:100DA0008E810E940304EECF88E090E0F4CF8BE3C5
:100DB0009DE00197F1F760E0809119050E94D10351
:100DC00060E080911B050E94D10380911A058F3F3E
:100DD00019F060E00E94D1038091240584FD34C0A5
:100DE00063E085E195E00E940B06CBE4D6E4CE01FA
:100DF0000197F1F763E085E195E00E940B062197EA
:100E0000F1F763E085E195E00E940B0683E592E04F
:100E10000197F1F762E085E195E00E940B06809171
:100E2000240580620E948B0684E0809325058CE077
:100E30000E948B060E94910682E08093260586E040
:100E4000DF91CF910C948B0680620E948B068BE41D
:100E500096E40197F1F78091240580620E948B0649
:100E600083E592E00197F1F78091240580620E946A
:100E70008B06D5CF90912805691710F06FEF690F99
:100E8000E62FF0E0EB5EFA4F9489890F80680C94AE
:100E90008B0641E00E94380681E090E00895FC0155
:100EA00001900020E9F73197AF01481B590BBC01B5
:100EB00085E195E00C940A020E94910683E492E099
:100EC0000E944F0760E088E00E94D10361E089E062
:100ED0000E94D1036DEC73E080E090E00E94BF05BA
:100EE00060E089E00E94D10360E088E00E94D103C5
:100EF0000E94910682E592E00E944F0764EF71E044
:100F000080E090E00E94BF051092E7031092E60394
:100F100008950E94910680E692E00E944F0760E0EB
:100F20008AE00E94D10361E08BE00E94D1036DEC66
:100F300073E080E090E00E94BF0560E08BE00E94DB
:100F4000D10360E08AE00E94D1030E9491068FE6FF
:100F500092E00E944F0764EF71E080E090E00E9411
:100F6000BF051092E5031092E40308950E949106D4
:100F70008DE792E00E944F0760E089E00E94D10374
:100F800061E088E00E94D1036DEC73E080E090E0C6
:100F90000E94BF0560E089E00E94D10360E088E024
:100FA0000E94D1030E9491068CE892E00E944F07B4
:100FB00064EF71E080E090E00E94BF0581E090E086
:100FC0009093E7038093E60308950E9491068AE9CF
:100FD00092E00E944F0760E08BE00E94D10361E045
:100FE0008AE00E94D1036DEC73E080E090E00E9403
:100FF000BF0560E08BE00E94D10360E08AE00E94C0
:10100000D1030E94910689EA92E00E944F0764EFA3
:1010100071E080E090E00E94BF0581E090E0909355
:10102000E5038093E4030895FC0124813581FB01ED
:101030004481558124173507E1F4FC0180819181B9
:10104000FB01608171810097D1F061157105A1F4F8
:10105000232BC1F0FC01808190E008C0232B91F08C
:10106000FB01808190E091958195910921E0892B88
:1010700009F020E0822F08950E941414F7CF611523
:10108000710561F721E0F6CF0F931F93CF93DF93A4
:10109000EC0188819981009759F02A813B812617BC
:1010A000370730F081E0DF91CF911F910F910895C4
:1010B0008B016F5F7F4F0E942A13009759F099832D
:1010C00088831B830A832C813D81232B59F7FC01E4
:1010D0001082E8CF80E0E7CFEF92FF920F931F934B
:1010E000CF93DF936115710541F480E0DF91CF91DB
:1010F0001F910F91FF90EF90089541155105B1F0A8
:101100007B01EC010C811D81040F151FB8010E94A9
:101110004408882351F3288139818C819D81B7014E
:10112000820F931F0E941D141D830C8381E0DECF6C
:10113000CF93DF93EC0188819981009711F00E9491
:10114000A112198218821D821C821B821A82DF91D1
:10115000CF9108950F931F93CF93DF931F921F9208
:10116000CDB7DEB78C0169831A8241E050E0BE0141
:101170006F5F7F4F0E946C08811103C0C8010E94FD
:101180009808C8010F900F90DF91CF911F910F9198
:101190000895EF92FF920F931F93CF93DF93EC018B
:1011A0007B018A01BA010E94440881110BC0CE0163
:1011B0000E949808CE01DF91CF911F910F91FF906F
:1011C000EF9008951D830C83B701888199810E9457
:1011D0001D14F0CFEF92FF920F931F93CF93DF93E5
:1011E00000D000D000D0CDB7DEB78C01862FF8013B
:1011F0001182108213821282158214824AE09E01AB
:101200002F5F3F4F7901B90190E00E94BD11F701B6
:1012100001900020E9F73197AF014E195F09B7013E
:10122000C8010E94C90829960FB6F894DEBF0FBE08
:10123000CDBFDF91CF911F910F91FF90EF90089557
:10124000CF93DF93EC01FB018617970749F060818C
:1012500071816115710541F0448155810E94C90871
:10126000CE01DF91CF9108950E949808F9CFFC013B
:101270001182108213821282158214820C9420092A
:10128000FC01118210821382128215821482FB01EA
:1012900001900020E9F73197AF01461B570B0C94E2
:1012A000C908FC0180819181009711F00C94A11272
:1012B00008950C94EF11CF93DF93CDB7DEB762970B
:1012C0000FB6F894DEBF0FBECDBF61E08DE00E9487
:1012D000D10361E08CE00E94D1030E94910660E09E
:1012E00084E00E943A0781E293E00E944F0761E0A8
:1012F00081E00E943A0787EB92E00E944F070E942C
:1013000043048823E1F3813319F40E94020EF7CFDE
:10131000823319F40E94ED0CF2CF833319F40E944A
:10132000D30AEDCF843359F70E94910681E090E013
:101330000E94E711682FCE0101960E94EA0890E012
:1013400080E00E94E711682FCE010D960E94EA0806
:10135000BE01635F7F4FCE0107960E94370945E0CB
:1013600050E067EC72E0CE0107960E946C08811194
:1013700004C0CE0107960E9498084D815E81698164
:101380007A81CE0107960E946C08811104C0CE01BB
:1013900007960E94980846E050E06DEC72E0CE019E
:1013A00007960E946C08811104C0CE0107960E9426
:1013B00098084B855C856F81788585E195E00E9472
:1013C0000A02CE0107960E945109CE010D960E9495
:1013D0005109CE0101960E94510968EB7BE080E043
:1013E00090E00E94BF050E945B09EF92FF920F936D
:1013F0001F93CF93DF93CDB7DEB76E970FB6F894F8
:10140000DEBF0FBECDBF81E090E0909301028093DC
:1014100000026CEF72E0CE0149960E9440090E94E2
:10142000910684ED92E00E944F0761E080E00E9407
:101430003A078091000290910102059744F50E94BD
:101440004304182F8823A9F385EE92E00E944F07EA
:10145000BE01675E7F4FCE0101960E943709612F62
:10146000CE0101960E94AA08BC01CE0149960E94B5
:101470002009CE0101960E945109809100029091AD
:10148000010201969093010280930002D2CF6FE097
:1014900075E0CE0149960E941408882381F060917E
:1014A000E2037091E3036F5F7F4F7093E3036093F8
:1014B000E20390E080E00E9459090E945B0960917C
:1014C000E0037091E1036F5F7F4F7093E1036093DE
:1014D000E00381E090E00E94590984E1E82EF12CBC
:1014E0008E010F5F1F4F0E94910687EE92E00E94CF
:1014F0004F0761E080E00E943A071C8A1B8A1E8A1F
:101500001D8A188E1F8A4AE0B801C7010E94B211D5
:10151000F80101900020E9F73197AF01401B510B12
:10152000B801CE0143960E94C90865EF72E0C80178
:101530000E9440094F89588D6B897C89C8010E949F
:101540006C08811103C0C8010E9498084D815E811A
:1015500069817A8185E195E00E940A02C8010E94B2
:101560005109CE0143960E94510968EE73E080E074
:1015700090E00E94BF0581E0E81AF10809F0B3CFBE
:101580000E94F509CE0149960E9451096E960FB648
:10159000F894DEBF0FBECDBFDF91CF911F910F91A9
:1015A000FF90EF9008951F93CF93DF93CDB7DEB7F1
:1015B00068970FB6F894DEBF0FBECDBF81E090E014
:1015C00090930102809300026CEF72E0CE0143968B
:1015D0000E9440090E9491068DEF92E00E944F0701
:1015E00061E080E00E943A07809100029091010240
:1015F000059744F50E944304182F8823A9F385EE2C
:1016000092E00E944F07BE016D5E7F4FCE010196B2
:101610000E943709612FCE0101960E94AA08BC01E1
:10162000CE0143960E942009CE0101960E945109E5
:1016300080910002909101020196909301028093A3
:101640000002D2CFBE016D5E7F4FCE010D960E948B
:1016500037096FE075E0CE010D960E9414088823CB
:1016600009F46FC16091E2037091E3036F5F7F4FF4
:101670007093E3036093E20390E080E00E945909D5
:101680000E9491068EE093E00E944F071092DF03C4
:101690001092DE030E944304182F8823D9F360E0E0
:1016A00080E00E943A078DE193E00E944F071133DA
:1016B00009F059C081E090E090930102809300020C
:1016C0006CEF72E0CE0107960E9440090E949106DD
:1016D0008BE293E00E944F0761E080E00E943A07AE
:1016E0008091000290910102059744F50E94430405
:1016F000182F8823A9F385EE92E00E944F07BE01C0
:10170000695F7F4FCE0101960E943709612FCE019C
:1017100001960E94AA08BC01CE0107960E942009EA
:10172000CE0101960E945109809100029091010220
:1017300001969093010280930002D2CFBE01695FAF
:101740007F4F8FE095E00E9420090E9491068CE374
:1017500093E00E944F0768EE73E080E090E00E9403
:10176000BF050E945B09123309F04AC081E090E096
:1017700090930102809300026CEF72E0CE01079615
:101780000E9440090E9491068CE493E00E944F075A
:1017900061E080E00E943A0780910002909101028E
:1017A000059744F50E944304182F8823A9F385EE7A
:1017B00092E00E944F07BE01695F7F4FCE01019604
:1017C0000E943709612FCE0101960E94AA08BC0130
:1017D000CE0107960E942009CE0101960E94510970
:1017E00080910002909101020196909301028093F2
:1017F0000002D2CFBE01695F7F4F89E095E0A3CFA1
:10180000133309F04AC081E090E090930102809385
:1018100000026CEF72E0CE0107960E9440090E9420
:10182000910688E593E00E944F0761E080E00E9406
:101830003A078091000290910102059744F50E94B9
:101840004304182F8823A9F385EE92E00E944F07E6
:10185000BE01695F7F4FCE0101960E943709612F5B
:10186000CE0101960E94AA08BC01CE0107960E94F3
:101870002009CE0101960E945109809100029091A9
:10188000010201969093010280930002D2CFBE0123
:10189000695F7F4F83E095E056CF143309F04AC06B
:1018A00081E090E090930102809300026CEF72E07F
:1018B000CE0107960E9440090E94910684E693E0BB
:1018C0000E944F0761E080E00E943A078091000289
:1018D00090910102059744F50E944304182F882334
:1018E000A9F385EE92E00E944F07BE01695F7F4F2A
:1018F000CE0101960E943709612FCE0101960E9408
:10190000AA08BC01CE0107960E942009CE010196CB
:101910000E945109809100029091010201969093DA
:10192000010280930002D2CFBE01695F7F4F8DEF2D
:1019300094E009CF64E670E080E090E00E94BF058B
:10194000A9CE6091E0037091E1036F5F7F4F8091BA
:10195000DE039091DF037093E1036093E00302974D
:10196000ACF581E090E00E9459098091DE039091EE
:10197000DF0301969093DF038093DE030E949106BC
:1019800080E793E00E944F0761E080E00E943A0701
:101990008FE793E00E944F076CED75E080E090E0E8
:1019A0000E94BF050E94D30ACE010D960E945109E4
:1019B000CE0143960E94510968960FB6F894DEBF97
:1019C0000FBECDBFDF91CF911F91089581E090E0D0
:1019D0000E9459090E94F509E7CF0F931F93CF93F7
:1019E000DF93CDB7DEB72C970FB6F894DEBF0FBEEE
:1019F000CDBF81E090E090930102809300026CEFF4
:101A000072E0CE0107960E9440090E94910689E883
:101A100093E00E944F0761E080E00E943A078091C6
:101A2000000290910102059744F50E944304182F8B
:101A30008823A9F385EE92E00E944F07BE01695FFB
:101A40007F4FCE0101960E943709612FCE0101968A
:101A50000E94AA08BC01CE0107960E942009CE016F
:101A600001960E9451098091000290910102019615
:101A70009093010280930002D2CFBE01695F7F4F35
:101A8000CE0101960E94370963E075E0CE01019610
:101A90000E941408082F6FE075E0CE0101960E94A5
:101AA0001408182F6DEF74E0CE0101960E941408FF
:101AB000002319F18091E6039091E703009709F064
:101AC0004FC00E94B60768EE73E080E090E00E948D
:101AD000BF051092DF031092DE036091E203709164
:101AE000E3036F5F7F4F7093E3036093E20390E043
:101AF00080E00E9459090E945B091111DBCF882305
:101B0000D9F18091E6039091E703009779F50E945F
:101B1000B60761E084E10E94D1036AEF70E080E0E3
:101B200090E00E94BF0560E084E10E94D1036AEF6B
:101B300070E080E090E00E94BF0561E084E10E94D7
:101B4000D1036AEF70E080E090E00E94BF0560E0A2
:101B500084E10E94D1036AEF70E080E090E0B7CFAB
:101B6000019709F0B0CF0E945C07ADCF019709F053
:101B7000B0CF0E945C07CDCF8091DE039091DF0350
:101B80008230910574F501969093DF038093DE0314
:101B90000E94910680E793E00E944F0761E080E099
:101BA0000E943A078FE793E00E944F076CED75E0C3
:101BB00080E090E00E94BF050E94ED0CCE010196EE
:101BC0000E945109CE0107960E9451092C960FB62A
:101BD000F894DEBF0FBECDBFDF91CF911F910F9163
:101BE00008956091E0037091E1036F5F7F4F709300
:101BF000E1036093E00381E090E00E9459090E94B4
:101C0000F509DCCF0F931F93CF93DF93CDB7DEB7EA
:101C10002C970FB6F894DEBF0FBECDBF81E090E0E9
:101C200090930102809300026CEF72E0CE01079660
:101C30000E9440090E94910660E080E00E943A07FD
:101C40008AE993E00E944F0761E080E00E943A0732
:101C50008091000290910102059744F50E9443048F
:101C6000182F8823A9F385EE92E00E944F07BE014A
:101C7000695F7F4FCE0101960E943709612FCE0127
:101C800001960E94AA08BC01CE0107960E94200975
:101C9000CE0101960E9451098091000290910102AB
:101CA00001969093010280930002D2CFBE01695F3A
:101CB0007F4FCE0101960E94370969E075E0CE01A1
:101CC00001960E941408082F6FE075E0CE0101967E
:101CD0000E941408182F6DEF74E0CE0101960E9447
:101CE0001408002319F18091E4039091E503009713
:101CF00009F04FC00E94E50768EE73E080E090E0D5
:101D00000E94BF051092DF031092DE036091E20390
:101D10007091E3036F5F7F4F7093E3036093E2037F
:101D200090E080E00E9459090E945B091111DBCF0D
:101D30008823D9F18091E4039091E503009779F528
:101D40000E94E50761E084E10E94D1036AEF70E040
:101D500080E090E00E94BF0560E084E10E94D10332
:101D60006AEF70E080E090E00E94BF0561E084E1EE
:101D70000E94D1036AEF70E080E090E00E94BF050E
:101D800060E084E10E94D1036AEF70E080E090E0BF
:101D9000B7CF019709F0B0CF0E948907ADCF019767
:101DA00009F0B0CF0E948907CDCF6091E003709118
:101DB000E1036F5F7F4F8091DE039091DF037093AB
:101DC000E1036093E0030297B4F581E090E00E94A4
:101DD00059098091DE039091DF0301969093DF0310
:101DE0008093DE030E94910680E793E00E944F07F4
:101DF00061E080E00E943A078FE793E00E944F077E
:101E00006CED75E080E090E00E94BF050E94020E3C
:101E1000CE0101960E945109CE0107960E945109F8
:101E20002C960FB6F894DEBF0FBECDBFDF91CF91D9
:101E30001F910F91089581E090E00E9459090E943E
:101E4000F509E6CF1F920F920FB60F9211240BB631
:101E50000F922F933F934F935F936F937F938F9343
:101E60009F93AF93BF93EF93FF9381EF93E00E9413
:101E70007E02FF91EF91BF91AF919F918F917F91E2
:101E80006F915F914F913F912F910F900BBE0F90EB
:101E90000FBE0F901F9018951F920F920FB60F92C2
:101EA00011240BB60F922F938F939F93EF93FF9371
:101EB000E0910104F09102048081E0910704F09127
:101EC000080482FD1DC0908180910A048F5F8F738A
:101ED00020910B04821741F0E0910A04F0E0EF50EA
:101EE000FC4F958F80930A04FF91EF919F918F9102
:101EF0002F910F900BBE0F900FBE0F901F90189553
:101F00008081F2CF1F920F920FB60F9211242F9360
:101F10003F938F939F93AF93BF938091ED039091E5
:101F2000EE03A091EF03B091F0033091E80323E0BA
:101F3000230F2D3758F50196A11DB11D2093E803FD
:101F40008093ED039093EE03A093EF03B093F0031F
:101F50008091E9039091EA03A091EB03B091EC0327
:101F60000196A11DB11D8093E9039093EA03A0930C
:101F7000EB03B093EC03BF91AF919F918F913F9191
:101F80002F910F900FBE0F901F90189526E8230FEA
:101F90000296A11DB11DD2CF1F920F920FB60F92C4
:101FA00011248F939F938091DC039091DD03823203
:101FB000910579F41092DF031092DE031092DD0395
:101FC0001092DC039F918F910F900FBE0F901F9086
:101FD000189501969093DD038093DC03F3CF109264
:101FE000F4031092F30388EE93E0A0E0B0E0809356
:101FF000F5039093F603A093F703B093F8038FE1F2
:1020000092E09093F2038093F10385EC90E090933B
:10201000FE038093FD0384EC90E090930004809392
:10202000FF0380EC90E0909302048093010481EC24
:1020300090E0909304048093030482EC90E09093EA
:1020400006048093050486EC90E090930804809346
:10205000070410920A0410920B0410920C041092C0
:102060000D0410921805109217058BE392E09093DF
:102070001605809315058EE0809319058FEF8093E8
:102080001A058FE080931B0580E180931C0581E198
:1020900080931D0582E180931E0583E180931F05D7
:1020A000109220051092210510922205109223050E
:1020B0001092240581E00E9499066BEA73E08FE09C
:1020C00095E00E94400960EB73E089E095E00E9492
:1020D000400965EB73E083E095E00E9440096AEBFC
:1020E00073E08DEF94E00E944009109290041092EA
:1020F0009404109293041092950481E392E09093DB
:102100008F0480938E04EAEAF4E010821482138232
:102110001582369684E0E63EF807B9F785E092E04E
:102120009093F1048093F00482E092E09093F304A2
:102130008093F20484E08093F40483E08093F504B8
:1021400089E092E09093EF048093EE048AE090E0BF
:102150009093F7048093F60484EF91E09093F90450
:102160008093F8041092FC041092FB041092EA048D
:102170001092EB041092EC041092ED041092FA0409
:102180000895789484B5826084BD84B5816084BDEF
:1021900085B5826085BD85B5816085BDEEE6F0E0E0
:1021A000808181608083C1E8D0E01882888182606C
:1021B000888388818160888300E810E0F80180814D
:1021C00081608083E1EBF0E0808184608083E0EBDC
:1021D000F0E0808181608083E1E9F0E080818260CD
:1021E0008083808181608083E0E9F0E0808181608C
:1021F0008083E1EAF0E08081826080838081816079
:102200008083E0EAF0E0808181608083E1E2F1E0B8
:10221000808182608083808181608083E0E2F1E060
:10222000808181608083EAE7F0E080818460808340
:1022300080818260808380818160808380818068EA
:1022400080831092C100E1EFF3E0A089B18982E0C0
:102250008C93A485B5851C92A685B7858FEC8C934D
:10226000108EA489B58986E08C93A289B3898C915C
:1022700080618C93A289B3898C9188608C93A289A8
:10228000B3898C9180688C930288F389E02D8081DA
:102290008F7D808382E00E94990661E084E10E9444
:1022A000030461E08DE00E94030461E08CE00E9481
:1022B000030461E08BE00E94030461E08AE00E9475
:1022C000030461E089E00E94030461E088E00E9469
:1022D0000304F801108288818F7E8883888188605A
:1022E000888388818460888388818D7F88838881C2
:1022F0008160888310928500109284008BE197EBB7
:102300009093890080938800EFE6F0E080818260FE
:102310008083789460E080E00E943A078FEB93E03E
:102320000E944F0761E080E00E943A078DEC93E045
:102330000E944F0764EC79E080E090E00E94BF05C6
:102340000E945B098DEF94E00E94510983E095E0C3
:102350000E94510989E095E00E9451098FE095E0C3
:102360000C945109BB274A3031F4992322F4BDE281
:10237000909581959F4F0C94BE11BB27FB0155276B
:10238000AA27880F991FAA1FA41710F0A41B8395D2
:102390005051B9F7A05DAA3308F0A95DA193009749
:1023A00079F7B111B1931192CB010C94D711DC01E3
:1023B000FC01672F71917723E1F7329704C07C917C
:1023C0006D9370836291AE17BF07C8F30895F999B2
:1023D000FECF92BD81BDF89A992780B50895262F2A
:1023E000F999FECF1FBA92BD81BD20BD0FB6F894FA
:1023F000FA9AF99A0FBE01960895EE0FFF1F881FF3
:102400008BBF0790F691E02D19940F931F93CF93F4
:10241000DF938230910510F482E090E0E0912F0587
:10242000F091300530E020E0B0E0A0E0309799F482
:102430002115310509F44AC0281B390B2430310518
:10244000D8F58A819B816115710589F1FB01938320
:102450008283FE0111C0408151810281138148179E
:102460005907E0F04817590799F4109761F0129650
:102470000C93129713961C933296CF01DF91CF9154
:102480001F910F91089500932F0510933005F4CFFD
:102490002115310551F04217530738F0A901DB012E
:1024A0009A01BD01DF01F801C1CFEF01F9CF90938F
:1024B000300580932F05CDCFFE01E20FF31F8193EE
:1024C00091932250310939832883D7CF20912D054C
:1024D00030912E05232B41F42091170230911802E0
:1024E00030932E0520932D05209115023091160270
:1024F0002115310541F42DB73EB740911902509195
:102500001A02241B350BE0912D05F0912E05E217E0
:10251000F307A0F42E1B3F0B2817390778F0AC0106
:102520004E5F5F4F2417350748F04E0F5F1F5093E3
:102530002E0540932D05819391939FCFF0E0E0E02D
:102540009CCFCF93DF930097E9F0FC013297138281
:102550001282A0912F05B0913005ED0130E020E00E
:102560001097A1F420813181820F931F20912D05B6
:1025700030912E052817390709F061C0F0932E0518
:10258000E0932D05DF91CF910895EA01CE17DF0783
:10259000E8F54A815B819E0141155105B1F7E901DA
:1025A000FB83EA8349915991C40FD51FEC17FD07AE
:1025B00061F4808191810296840F951FE9019983CE
:1025C0008883828193819B838A83F0E0E0E0129686
:1025D0008D919C9113970097B9F52D913C9111978E
:1025E000CD010296820F931F20912D0530912E056B
:1025F0002817390739F6309751F5109230051092A7
:102600002F05B0932E05A0932D05BCCFD383C28395
:1026100040815181840F951FC817D90761F44E5F1F
:102620005F4F88819981480F591F518340838A8168
:102630009B81938382832115310509F0B0CFF093FC
:102640003005E0932F059ECFFD01DC01C0CF138242
:102650001282D7CF4F925F926F927F928F929F920A
:10266000AF92BF92CF92DF92EF92FF920F931F93A0
:10267000CF93DF938C01009799F4CB01DF91CF9139
:102680001F910F91FF90EF90DF90CF90BF90AF9090
:102690009F908F907F906F905F904F900C94051259
:1026A000FC01E60FF71F9C0122503109E217F307E6
:1026B00008F4AEC0D901CD91DC911197C617D707A8
:1026C00020F1C530D10578F0CE0104978617970721
:1026D00050F0C61BD70B2297C193D1936D937C9377
:1026E000CF010E94A112C801DF91CF911F910F91DC
:1026F000FF90EF90DF90CF90BF90AF909F908F9022
:102700007F906F905F904F9008955B01AC1ABD0A67
:102710004C018C0E9D1EA0912F05B0913005512CBF
:10272000412CF12CE12C109731F580912D059091E1
:102730002E058815990509F05CC04616570608F065
:1027400058C08091150290911602009741F48DB700
:102750009EB74091190250911A02841B950BE817FD
:10276000F90708F055C0F0932E05E0932D05F90107
:1027700071836083B8CF8D919C91119712966C9064
:10278000129713967C901397A815B90559F56C010B
:1027900042E0C40ED11CCA14DB0420F1AC014A197A
:1027A0005B09DA011296159780F062827382518379
:1027B0004083D9016D937C93E114F10471F0D7014A
:1027C0001396FC93EE9312978ECF22968C0F9D1F3B
:1027D000F90191838083F301EFCFF0933005E0930B
:1027E0002F0581CF4816590608F42C017D01D3012D
:1027F0009ACFCB010E9405127C01009749F0AE01EF
:10280000B8010E940B14C8010E94A11287016BCF6E
:1028100010E000E068CFFB01DC0102C001900D92E6
:1028200041505040D8F70895FB01DC018D91019093
:1028300080190110D9F3990B0895FB01DC01019077
:102840000D920020E1F7089511E0C3E4D1E000E02B
:1028500006C0802FFE010E94FD112196011DC43487
:0C286000D10780E00807A9F7F894FFCF2B
:10286C0001000706050403020131323334353637D3
:10287C0038392A302300003105800000000000A008
:10288C00020A023702ED02680246025A02000000F8
:10289C00003F04FF03CE030000000049070A02F2C8
:1028AC0005F105536563742042206C6F636B696E90
:1028BC006700536563742042206C6F636B65640022
:1028CC00536563742041206C6F636B696E670053B2
:1028DC006563742041206C6F636B656400536563A2
:1028EC00742042206F70656E696E67005365637467
:1028FC002042206F70656E656400536563742041DF
:10290C00206F70656E696E6700536563742041209B
:10291C006F70656E656400312D4120322D4220337D
:10292C002D4D20342D520020537563200020556E00
:10293C007375630053797374656D204C6F636B65AD
:10294C0064204D50002A00202020204E6F2061630F
:10295C0063657373002020202020202000456E74B6
:10296C006572204D6173746572205073770043500B
:10297C0020314D203241203342203454002020207D
:10298C00204D61696E204D656E7500456E746572E3
:10299C00204E6577204D61737465720050617377BA
:1029AC00206973206368616E67656400456E7465A9
:1029BC0072204E6577204100456E746572204E651D
:1029CC0077204200456E746572204E657720540066
:1029DC0057726F6E672050617373776F7264005417
:1029EC00727920616761696E00456E746572205062
:1029FC00617373776F7264204200456E7465722048
:102A0C0050617373776F726420410031323334003C
:102A1C003232323200333333330039393939002012
:102A2C00202057656C636F6D6520746F002020202B
:0C2A3C00486F74656C20536166650000F3
:00000001FF
